:1000000012C02CC02BC02AC029C028C09CC226C048
:1000100025C0D2C223C022C021C020C01FC01EC024
:100020001DC01CC01BC011241FBECFE5D4E0DEBF25
:10003000CDBF10E0A0E6B0E0EAE3F8E002C0059032
:100040000D92A236B107D9F710E0A2E6B0E001C0E8
:100050001D92A238B107E1F7BFD1EDC3D1CFDF9335
:10006000CF930F92CDB7DEB7898380917800883027
:10007000C0F480917600882F90E0FC01E259FF4F98
:1000800089818083809178008F5F80937800809150
:1000900076008F5F809376008091760087708093E2
:1000A00076000F90CF91DF910895DF93CF930F9259
:1000B000CDB7DEB71982809178008823C1F0809196
:1000C0007700882F90E0FC01E259FF4F80818983FF
:1000D00080917800815080937800809177008F5FC5
:1000E0008093770080917700877080937700898173
:1000F0000F90CF91DF910895DF93CF9300D000D080
:100100000F92CDB7DEB78B836C834D838C8181508A
:100110008C838C81882F90E0FC01E559FF4F808112
:100120008A8319828C81882F90E0880F991FFC01A7
:10013000ED59FF4F8081918190936A00809369000F
:100140008B81882309F442C08091690090916A00F4
:1001500021E0853F920708F057C080916900909197
:100160006A00019690936A0080936900809169000B
:1001700090916A008B30910598F08A81882F90E0E9
:1001800081709070009761F48A8181608A838D818B
:10019000882F90E081709070882311F081E089832E
:1001A0008091690090916A0021E0853F920760F19B
:1001B0008A81882F90E082709070009729F58A815B
:1001C0008B7F8A838A8182608A831EC08A81882F7E
:1001D00090E081709070882381F08A81882F90E070
:1001E00082709070009749F48D81882F90E0847020
:1001F0009070009711F083E0898310926A0010924A
:1002000069008A818C7F8A838981882329F08C8187
:100210008F5F25DF898123DF8C81882F90E02091FB
:10022000690030916A00880F991FFC01ED59FF4F5A
:10023000318320838C81882F90E0FC01E559FF4FAA
:100240008A8180830F900F900F900F900F90CF9125
:10025000DF910895DF93CF930F92CDB7DEB7198268
:1002600014C08981882F90E0880F991FFC01ED59F7
:10027000FF4F118210828981882F90E0FC01E5599F
:10028000FF4F108289818F5F89838981833048F392
:1002900019820AC08981882F90E0FC01E259FF4F42
:1002A000108289818F5F89838981883098F31092C9
:1002B00076001092770010927800A7E3B0E0E7E3B1
:1002C000F0E080818F7E8C93A8E3B0E0E8E3F0E07B
:1002D000808180618C93A7E3B0E0E7E3F0E0808168
:1002E0008F7D8C93A8E3B0E0E8E3F0E0808180624A
:1002F0008C93A7E3B0E0E7E3F0E080818F7B8C9301
:10030000A8E3B0E0E8E3F0E0808180648C930F9094
:10031000CF91DF910895DF93CF9300D00F92CDB7A7
:10032000DEB7198280916200282F30E03B832A8358
:100330008A819B8181309105D9F02A813B812230CD
:10034000310541F18A819B810097A9F5E6E3F0E050
:100350008081882F90E080719070009719F481E07F
:10036000898301C01982898161E041E0C5DE23C033
:10037000E6E3F0E08081882F90E080729070009733
:1003800019F481E0898301C01982898162E041E02A
:10039000B3DE11C0E6E3F0E08081882F90E0807446
:1003A0009070009719F481E0898301C019828981D6
:1003B00063E041E0A1DE809162008F5F8093620084
:1003C00080916200833010F0109262000F900F90C5
:1003D0000F90CF91DF910895DF93CF9300D000D09D
:1003E00000D0CDB7DEB71C8281E08A8381E08983AB
:1003F00031DF7AD0E1E3F0E08FEF8083E7E3F0E0F4
:100400008FE08083E2E3F0E08FEF8083E8E3F0E0C9
:1004100080E38083789480918000813031F48091F2
:10042000600090917900692FCBD175DF3EDE8B8320
:100430008B818130C1F539DE8C838C81813099F4D8
:100440008A81882381F4AEE4B0E0EEE4F0E08081BC
:100450008B7F8C931D828A81882311F481E08D83A8
:100460008D818A8320C08C818130E9F48A81882340
:10047000D1F08981882331F08CE380936000109261
:1004800079001982AEE4B0E0EEE4F0E080818460AF
:100490008C931E828A81882311F481E08E838E8161
:1004A0008A8310927E008B81823009F0B4CF8C81D8
:1004B000813009F0B0CFAEE4B0E0EEE4F0E080814E
:1004C0008B7F8C9310926000109279008091600075
:1004D00090917900692F74D181E08A8381E08983CA
:1004E00081E080937E0097CFDF93CF93CDB7DEB7C7
:1004F000AEE4B0E0EEE4F0E0808188608C93E3E568
:10050000F0E081E08083A3E5B0E0E3E5F0E0808106
:1005100082608C93A9E5B0E0E9E5F0E0808181603C
:100520008C93A9E5B0E0E9E5F0E0808180618C93EF
:10053000EBE4F0E08DE38083EAE4F0E089E080839F
:10054000CF91DF9108951F920F920FB60F92112451
:100550008F93DF93CF93CDB7DEB780917A008F5F13
:1005600080937A0080917A008230D9F4809179006A
:10057000882341F4809160008150809360008CE377
:100580008093790080916000882321F48CE380932C
:10059000600005C0809179008150809379001092AD
:1005A0007A0081E080938000CF91DF918F910F904E
:1005B0000FBE0F901F9018951F920F920FB60F92BB
:1005C00011242F933F934F935F936F937F938F9358
:1005D0009F93AF93BF93EF93FF93DF93CF93CDB7E9
:1005E000DEB780917B00882341F4E8E3F0E081E00E
:1005F0008083809181004CD02DC080917B00813020
:1006000091F4E8E3F0E082E0808380917F0040D0C5
:1006100080917A00813021F080917E008823D1F092
:100620008AE036D017C080917B00823041F4E8E345
:10063000F0E084E0808380917C002AD00BC0809120
:100640007B00833039F4E8E3F0E088E08083809138
:100650007D001ED080917B008F5F80937B00809116
:100660007B00843010F010927B00CF91DF91FF91DE
:10067000EF91BF91AF919F918F917F916F915F911A
:100680004F913F912F910F900FBE0F901F90189593
:10069000DF93CF9300D00F92CDB7DEB789838981E6
:1006A000282F30E03B832A838A819B818530910506
:1006B00009F45BC02A813B81263031050CF58A8123
:1006C0009B818230910509F441C02A813B8123300E
:1006D00031055CF48A819B81009709F45FC02A810F
:1006E0003B812130310569F165C08A819B8183306E
:1006F000910589F12A813B812430310589F15AC065
:100700008A819B818830910509F43EC02A813B8112
:10071000293031055CF48A819B818630910551F145
:100720002A813B812730310551F144C08A819B8168
:100730008930910571F12A813B812A30310599F187
:1007400039C0E2E3F0E089EF808334C0E2E3F0E017
:1007500084EA80832FC0E2E3F0E080EB80832AC04C
:10076000E2E3F0E089E9808325C0E2E3F0E082E99A
:10077000808320C0E2E3F0E082E880831BC0E2E3F4
:10078000F0E088EF808316C0E2E3F0E080E8808349
:1007900011C0E2E3F0E080E980830CC0E2E3F0E026
:1007A00080EC808307C0A2E3B0E0E2E3F0E0808168
:1007B0008F778C930F900F900F90CF91DF910895CA
:1007C000DF93CF9300D0CDB7DEB789836A83898169
:1007D0009AE0692F24D08093810089819AE0692F63
:1007E0001ED0892F80937F008A819AE0692F17D0CD
:1007F00080937C008A819AE0692F11D0892F8093A1
:100800007D00109280000F900F90CF91DF9108959E
:10081000DF93CF93CDB7DEB7CF91DF910895991BCA
:1008200079E004C0991F961708F0961B881F7A95E7
:0A083000C9F780950895F894FFCFF2
:02083A003C0080
:00000001FF
